{
  "contractName": "BookingSystem",
  "abi": [
    {
      "inputs": [],
      "stateMutability": "nonpayable",
      "type": "constructor"
    },
    {
      "anonymous": false,
      "inputs": [
        {
          "indexed": true,
          "internalType": "address",
          "name": "user",
          "type": "address"
        },
        {
          "indexed": true,
          "internalType": "uint8",
          "name": "roomId",
          "type": "uint8"
        },
        {
          "indexed": false,
          "internalType": "uint8",
          "name": "time",
          "type": "uint8"
        }
      ],
      "name": "ReservationApplied",
      "type": "event"
    },
    {
      "anonymous": false,
      "inputs": [
        {
          "indexed": true,
          "internalType": "address",
          "name": "user",
          "type": "address"
        },
        {
          "indexed": true,
          "internalType": "uint8",
          "name": "roomId",
          "type": "uint8"
        },
        {
          "indexed": false,
          "internalType": "uint8",
          "name": "time",
          "type": "uint8"
        }
      ],
      "name": "ReservationCancelled",
      "type": "event"
    },
    {
      "inputs": [
        {
          "internalType": "uint256",
          "name": "",
          "type": "uint256"
        }
      ],
      "name": "Rooms",
      "outputs": [
        {
          "internalType": "uint8",
          "name": "id",
          "type": "uint8"
        },
        {
          "internalType": "string",
          "name": "name",
          "type": "string"
        }
      ],
      "stateMutability": "view",
      "type": "function",
      "constant": true
    },
    {
      "inputs": [
        {
          "internalType": "address",
          "name": "",
          "type": "address"
        }
      ],
      "name": "Users",
      "outputs": [
        {
          "internalType": "enum BookingSystem.Company",
          "name": "",
          "type": "uint8"
        }
      ],
      "stateMutability": "view",
      "type": "function",
      "constant": true
    },
    {
      "inputs": [
        {
          "internalType": "uint8",
          "name": "",
          "type": "uint8"
        },
        {
          "internalType": "uint8",
          "name": "",
          "type": "uint8"
        }
      ],
      "name": "availabilities",
      "outputs": [
        {
          "internalType": "address",
          "name": "",
          "type": "address"
        }
      ],
      "stateMutability": "view",
      "type": "function",
      "constant": true
    },
    {
      "inputs": [
        {
          "internalType": "enum BookingSystem.Company",
          "name": "company",
          "type": "uint8"
        }
      ],
      "name": "assignToCompany",
      "outputs": [],
      "stateMutability": "nonpayable",
      "type": "function"
    },
    {
      "inputs": [
        {
          "internalType": "uint8",
          "name": "roomId",
          "type": "uint8"
        },
        {
          "internalType": "uint8",
          "name": "hour",
          "type": "uint8"
        }
      ],
      "name": "applyReservation",
      "outputs": [],
      "stateMutability": "nonpayable",
      "type": "function"
    },
    {
      "inputs": [
        {
          "internalType": "uint8",
          "name": "roomId",
          "type": "uint8"
        },
        {
          "internalType": "uint8",
          "name": "hour",
          "type": "uint8"
        }
      ],
      "name": "cancelReservation",
      "outputs": [],
      "stateMutability": "nonpayable",
      "type": "function"
    }
  ],
  "bytecode": "0x60806040523480156200001157600080fd5b5060026040518060400160405280600160ff1681526020016040518060400160405280600381526020017f4330310000000000000000000000000000000000000000000000000000000000815250815250908060018154018082558091505060019003906000526020600020906002020160009091909190915060008201518160000160006101000a81548160ff021916908360ff1602179055506020820151816001019080519060200190620000ca92919062000eb4565b50505060026040518060400160405280600260ff1681526020016040518060400160405280600381526020017f4330320000000000000000000000000000000000000000000000000000000000815250815250908060018154018082558091505060019003906000526020600020906002020160009091909190915060008201518160000160006101000a81548160ff021916908360ff16021790555060208201518160010190805190602001906200018592919062000eb4565b50505060026040518060400160405280600360ff1681526020016040518060400160405280600381526020017f4330330000000000000000000000000000000000000000000000000000000000815250815250908060018154018082558091505060019003906000526020600020906002020160009091909190915060008201518160000160006101000a81548160ff021916908360ff16021790555060208201518160010190805190602001906200024092919062000eb4565b50505060026040518060400160405280600460ff1681526020016040518060400160405280600381526020017f4330340000000000000000000000000000000000000000000000000000000000815250815250908060018154018082558091505060019003906000526020600020906002020160009091909190915060008201518160000160006101000a81548160ff021916908360ff1602179055506020820151816001019080519060200190620002fb92919062000eb4565b50505060026040518060400160405280600560ff1681526020016040518060400160405280600381526020017f4330350000000000000000000000000000000000000000000000000000000000815250815250908060018154018082558091505060019003906000526020600020906002020160009091909190915060008201518160000160006101000a81548160ff021916908360ff1602179055506020820151816001019080519060200190620003b692919062000eb4565b50505060026040518060400160405280600660ff1681526020016040518060400160405280600381526020017f4330360000000000000000000000000000000000000000000000000000000000815250815250908060018154018082558091505060019003906000526020600020906002020160009091909190915060008201518160000160006101000a81548160ff021916908360ff16021790555060208201518160010190805190602001906200047192919062000eb4565b50505060026040518060400160405280600760ff1681526020016040518060400160405280600381526020017f4330370000000000000000000000000000000000000000000000000000000000815250815250908060018154018082558091505060019003906000526020600020906002020160009091909190915060008201518160000160006101000a81548160ff021916908360ff16021790555060208201518160010190805190602001906200052c92919062000eb4565b50505060026040518060400160405280600860ff1681526020016040518060400160405280600381526020017f4330380000000000000000000000000000000000000000000000000000000000815250815250908060018154018082558091505060019003906000526020600020906002020160009091909190915060008201518160000160006101000a81548160ff021916908360ff1602179055506020820151816001019080519060200190620005e792919062000eb4565b50505060026040518060400160405280600960ff1681526020016040518060400160405280600381526020017f4330390000000000000000000000000000000000000000000000000000000000815250815250908060018154018082558091505060019003906000526020600020906002020160009091909190915060008201518160000160006101000a81548160ff021916908360ff1602179055506020820151816001019080519060200190620006a292919062000eb4565b50505060026040518060400160405280600a60ff1681526020016040518060400160405280600381526020017f4331300000000000000000000000000000000000000000000000000000000000815250815250908060018154018082558091505060019003906000526020600020906002020160009091909190915060008201518160000160006101000a81548160ff021916908360ff16021790555060208201518160010190805190602001906200075d92919062000eb4565b50505060026040518060400160405280600b60ff1681526020016040518060400160405280600381526020017f5031310000000000000000000000000000000000000000000000000000000000815250815250908060018154018082558091505060019003906000526020600020906002020160009091909190915060008201518160000160006101000a81548160ff021916908360ff16021790555060208201518160010190805190602001906200081892919062000eb4565b50505060026040518060400160405280600c60ff1681526020016040518060400160405280600381526020017f5031320000000000000000000000000000000000000000000000000000000000815250815250908060018154018082558091505060019003906000526020600020906002020160009091909190915060008201518160000160006101000a81548160ff021916908360ff1602179055506020820151816001019080519060200190620008d392919062000eb4565b50505060026040518060400160405280600d60ff1681526020016040518060400160405280600381526020017f5031330000000000000000000000000000000000000000000000000000000000815250815250908060018154018082558091505060019003906000526020600020906002020160009091909190915060008201518160000160006101000a81548160ff021916908360ff16021790555060208201518160010190805190602001906200098e92919062000eb4565b50505060026040518060400160405280600e60ff1681526020016040518060400160405280600381526020017f5031340000000000000000000000000000000000000000000000000000000000815250815250908060018154018082558091505060019003906000526020600020906002020160009091909190915060008201518160000160006101000a81548160ff021916908360ff160217905550602082015181600101908051906020019062000a4992919062000eb4565b50505060026040518060400160405280600f60ff1681526020016040518060400160405280600381526020017f5031350000000000000000000000000000000000000000000000000000000000815250815250908060018154018082558091505060019003906000526020600020906002020160009091909190915060008201518160000160006101000a81548160ff021916908360ff160217905550602082015181600101908051906020019062000b0492919062000eb4565b50505060026040518060400160405280601060ff1681526020016040518060400160405280600381526020017f5031360000000000000000000000000000000000000000000000000000000000815250815250908060018154018082558091505060019003906000526020600020906002020160009091909190915060008201518160000160006101000a81548160ff021916908360ff160217905550602082015181600101908051906020019062000bbf92919062000eb4565b50505060026040518060400160405280601160ff1681526020016040518060400160405280600381526020017f5031370000000000000000000000000000000000000000000000000000000000815250815250908060018154018082558091505060019003906000526020600020906002020160009091909190915060008201518160000160006101000a81548160ff021916908360ff160217905550602082015181600101908051906020019062000c7a92919062000eb4565b50505060026040518060400160405280601260ff1681526020016040518060400160405280600381526020017f5031380000000000000000000000000000000000000000000000000000000000815250815250908060018154018082558091505060019003906000526020600020906002020160009091909190915060008201518160000160006101000a81548160ff021916908360ff160217905550602082015181600101908051906020019062000d3592919062000eb4565b50505060026040518060400160405280601360ff1681526020016040518060400160405280600381526020017f5031390000000000000000000000000000000000000000000000000000000000815250815250908060018154018082558091505060019003906000526020600020906002020160009091909190915060008201518160000160006101000a81548160ff021916908360ff160217905550602082015181600101908051906020019062000df092919062000eb4565b50505060026040518060400160405280601460ff1681526020016040518060400160405280600381526020017f5032300000000000000000000000000000000000000000000000000000000000815250815250908060018154018082558091505060019003906000526020600020906002020160009091909190915060008201518160000160006101000a81548160ff021916908360ff160217905550602082015181600101908051906020019062000eab92919062000eb4565b50505062000fc9565b82805462000ec29062000f93565b90600052602060002090601f01602090048101928262000ee6576000855562000f32565b82601f1062000f0157805160ff191683800117855562000f32565b8280016001018555821562000f32579182015b8281111562000f3157825182559160200191906001019062000f14565b5b50905062000f41919062000f45565b5090565b5b8082111562000f6057600081600090555060010162000f46565b5090565b7f4e487b7100000000000000000000000000000000000000000000000000000000600052602260045260246000fd5b6000600282049050600182168062000fac57607f821691505b6020821081141562000fc35762000fc262000f64565b5b50919050565b610d0c8062000fd96000396000f3fe608060405234801561001057600080fd5b50600436106100625760003560e01c806341b1a04f146100675780634c4c50ff1461008357806355566dd0146100b357806356e506d5146100cf57806399b956a0146100eb578063f673e2c71461011b575b600080fd5b610081600480360381019061007c919061077c565b61014c565b005b61009d600480360381019061009891906107e2565b6101b5565b6040516100aa9190610863565b60405180910390f35b6100cd60048036038101906100c891906107e2565b6101f7565b005b6100e960048036038101906100e491906107e2565b610430565b005b610105600480360381019061010091906108aa565b610669565b604051610112919061094e565b60405180910390f35b6101356004803603810190610130919061099f565b610689565b604051610143929190610a74565b60405180910390f35b806000803373ffffffffffffffffffffffffffffffffffffffff1673ffffffffffffffffffffffffffffffffffffffff16815260200190815260200160002060006101000a81548160ff021916908360028111156101ad576101ac6108d7565b5b021790555050565b60016020528160005260406000206020528060005260406000206000915091509054906101000a900473ffffffffffffffffffffffffffffffffffffffff1681565b336000600281111561020c5761020b6108d7565b5b6000808373ffffffffffffffffffffffffffffffffffffffff1673ffffffffffffffffffffffffffffffffffffffff16815260200190815260200160002060009054906101000a900460ff16600281111561026a576102696108d7565b5b14156102ab576040517f08c379a00000000000000000000000000000000000000000000000000000000081526004016102a290610b16565b60405180910390fd5b600073ffffffffffffffffffffffffffffffffffffffff16600160008560ff1660ff16815260200190815260200160002060008460ff1660ff16815260200190815260200160002060009054906101000a900473ffffffffffffffffffffffffffffffffffffffff1673ffffffffffffffffffffffffffffffffffffffff161461036a576040517f08c379a000000000000000000000000000000000000000000000000000000000815260040161036190610ba8565b60405180910390fd5b33600160008560ff1660ff16815260200190815260200160002060008460ff1660ff16815260200190815260200160002060006101000a81548173ffffffffffffffffffffffffffffffffffffffff021916908373ffffffffffffffffffffffffffffffffffffffff1602179055508260ff163373ffffffffffffffffffffffffffffffffffffffff167fe8c078f17dc6498c20f56cb2ed19424db48c0cb2759492c8542f911da21b9360846040516104239190610bc8565b60405180910390a3505050565b3360006002811115610445576104446108d7565b5b6000808373ffffffffffffffffffffffffffffffffffffffff1673ffffffffffffffffffffffffffffffffffffffff16815260200190815260200160002060009054906101000a900460ff1660028111156104a3576104a26108d7565b5b14156104e4576040517f08c379a00000000000000000000000000000000000000000000000000000000081526004016104db90610b16565b60405180910390fd5b600160008460ff1660ff16815260200190815260200160002060008360ff1660ff16815260200190815260200160002060009054906101000a900473ffffffffffffffffffffffffffffffffffffffff1673ffffffffffffffffffffffffffffffffffffffff163373ffffffffffffffffffffffffffffffffffffffff16146105a2576040517f08c379a000000000000000000000000000000000000000000000000000000000815260040161059990610c55565b60405180910390fd5b6000600160008560ff1660ff16815260200190815260200160002060008460ff1660ff16815260200190815260200160002060006101000a81548173ffffffffffffffffffffffffffffffffffffffff021916908373ffffffffffffffffffffffffffffffffffffffff1602179055508260ff163373ffffffffffffffffffffffffffffffffffffffff167f7014f2c7eca190617f871f6c59820092c5a2341d475fbe4c9a5337cda9bd90308460405161065c9190610bc8565b60405180910390a3505050565b60006020528060005260406000206000915054906101000a900460ff1681565b6002818154811061069957600080fd5b90600052602060002090600202016000915090508060000160009054906101000a900460ff16908060010180546106cf90610ca4565b80601f01602080910402602001604051908101604052809291908181526020018280546106fb90610ca4565b80156107485780601f1061071d57610100808354040283529160200191610748565b820191906000526020600020905b81548152906001019060200180831161072b57829003601f168201915b5050505050905082565b600080fd5b6003811061076457600080fd5b50565b60008135905061077681610757565b92915050565b60006020828403121561079257610791610752565b5b60006107a084828501610767565b91505092915050565b600060ff82169050919050565b6107bf816107a9565b81146107ca57600080fd5b50565b6000813590506107dc816107b6565b92915050565b600080604083850312156107f9576107f8610752565b5b6000610807858286016107cd565b9250506020610818858286016107cd565b9150509250929050565b600073ffffffffffffffffffffffffffffffffffffffff82169050919050565b600061084d82610822565b9050919050565b61085d81610842565b82525050565b60006020820190506108786000830184610854565b92915050565b61088781610842565b811461089257600080fd5b50565b6000813590506108a48161087e565b92915050565b6000602082840312156108c0576108bf610752565b5b60006108ce84828501610895565b91505092915050565b7f4e487b7100000000000000000000000000000000000000000000000000000000600052602160045260246000fd5b60038110610917576109166108d7565b5b50565b600081905061092882610906565b919050565b60006109388261091a565b9050919050565b6109488161092d565b82525050565b6000602082019050610963600083018461093f565b92915050565b6000819050919050565b61097c81610969565b811461098757600080fd5b50565b60008135905061099981610973565b92915050565b6000602082840312156109b5576109b4610752565b5b60006109c38482850161098a565b91505092915050565b6109d5816107a9565b82525050565b600081519050919050565b600082825260208201905092915050565b60005b83811015610a155780820151818401526020810190506109fa565b83811115610a24576000848401525b50505050565b6000601f19601f8301169050919050565b6000610a46826109db565b610a5081856109e6565b9350610a608185602086016109f7565b610a6981610a2a565b840191505092915050565b6000604082019050610a8960008301856109cc565b8181036020830152610a9b8184610a3b565b90509392505050565b7f426f6f6b696e67206973206f6e6c7920616c6c6f77656420746f206d656d626560008201527f7273206f6620434f4c41206f7220504550534900000000000000000000000000602082015250565b6000610b006033836109e6565b9150610b0b82610aa4565b604082019050919050565b60006020820190508181036000830152610b2f81610af3565b9050919050565b7f5468697320726f6f6d20697320616c726561647920626f6f6b6564206174207460008201527f6869732074696d652e0000000000000000000000000000000000000000000000602082015250565b6000610b926029836109e6565b9150610b9d82610b36565b604082019050919050565b60006020820190508181036000830152610bc181610b85565b9050919050565b6000602082019050610bdd60008301846109cc565b92915050565b7f596f752063616e6e6f742063616e63656c20746869732072657365727661746960008201527f6f6e000000000000000000000000000000000000000000000000000000000000602082015250565b6000610c3f6022836109e6565b9150610c4a82610be3565b604082019050919050565b60006020820190508181036000830152610c6e81610c32565b9050919050565b7f4e487b7100000000000000000000000000000000000000000000000000000000600052602260045260246000fd5b60006002820490506001821680610cbc57607f821691505b60208210811415610cd057610ccf610c75565b5b5091905056fea2646970667358221220b6e75f122c6a91e1cc137f0be47b55aaca6591eb6720c62b07ad2eeaeccda5bb64736f6c634300080a0033",
  "immutableReferences": {},
  "source": "// SPDX-License-Identifier: GPL-3.0\n\npragma solidity >=0.7.0 <0.9.0;\n\ncontract BookingSystem {\n    \n    enum Company { VOID, PEPSI, COLA }\n    mapping(address => Company) public Users;\n\n    address constant nullAddress = 0x0000000000000000000000000000000000000000;\n\n    struct Room { uint8 id; string name; }\n    mapping(uint8 /* roomId */ => mapping(uint8 /* hour */ => address /* occupant */)) public availabilities;\n\n    Room[] public Rooms;\n\n    event ReservationApplied(address indexed user, uint8 indexed roomId, uint8 time);\n    event ReservationCancelled(address indexed user, uint8 indexed roomId, uint8 time);\n    \n    constructor() {\n        Rooms.push(Room({id: 1, name: \"C01\"}));\n        Rooms.push(Room({id: 2, name: \"C02\"}));\n        Rooms.push(Room({id: 3, name: \"C03\"}));\n        Rooms.push(Room({id: 4, name: \"C04\"}));\n        Rooms.push(Room({id: 5, name: \"C05\"}));\n        Rooms.push(Room({id: 6, name: \"C06\"}));\n        Rooms.push(Room({id: 7, name: \"C07\"}));\n        Rooms.push(Room({id: 8, name: \"C08\"}));\n        Rooms.push(Room({id: 9, name: \"C09\"}));\n        Rooms.push(Room({id: 10, name: \"C10\"}));\n        Rooms.push(Room({id: 11, name: \"P11\"}));\n        Rooms.push(Room({id: 12, name: \"P12\"}));\n        Rooms.push(Room({id: 13, name: \"P13\"}));\n        Rooms.push(Room({id: 14, name: \"P14\"}));\n        Rooms.push(Room({id: 15, name: \"P15\"}));\n        Rooms.push(Room({id: 16, name: \"P16\"}));\n        Rooms.push(Room({id: 17, name: \"P17\"}));\n        Rooms.push(Room({id: 18, name: \"P18\"}));\n        Rooms.push(Room({id: 19, name: \"P19\"}));\n        Rooms.push(Room({id: 20, name: \"P20\"}));\n    }\n\n    function assignToCompany(Company company) public {\n        Users[msg.sender] = company;\n    }\n\n    modifier mustBelongToCompany(address user) {\n        require(Users[user] != Company.VOID, \"Booking is only allowed to members of COLA or PEPSI\");\n        _;\n    }\n\n    function applyReservation(uint8 roomId, uint8 hour) mustBelongToCompany(msg.sender) public {\n        require(availabilities[roomId][hour] == nullAddress, \"This room is already booked at this time.\");\n        \n        availabilities[roomId][hour] = msg.sender;\n        emit ReservationApplied(msg.sender, roomId, hour);\n    }\n\n    function cancelReservation(uint8 roomId, uint8 hour) mustBelongToCompany(msg.sender) public {\n        require(msg.sender == availabilities[roomId][hour], \"You cannot cancel this reservation\");\n\n        availabilities[roomId][hour] = nullAddress;\n        emit ReservationCancelled(msg.sender, roomId, hour);\n    }\n\n   \n}",
  "sourcePath": "/home/wkaa/pkgs/consensys/contracts/BookingSystem.sol",
  "compiler": {
    "name": "solc",
    "version": "0.8.10+commit.fc410830.Emscripten.clang"
  },
  "schemaVersion": "3.4.3",
  "updatedAt": "2021-11-26T15:11:55.034Z",
  "networkType": "ethereum",
  "devdoc": {
    "kind": "dev",
    "methods": {},
    "version": 1
  },
  "userdoc": {
    "kind": "user",
    "methods": {},
    "version": 1
  }
}